{
  "_format": "hh-sol-artifact-1",
  "contractName": "Rescu3",
  "sourceName": "contracts/Rescu3.sol",
  "abi": [
    {
      "anonymous": false,
      "inputs": [
        {
          "indexed": false,
          "internalType": "address",
          "name": "lost",
          "type": "address"
        }
      ],
      "name": "Challenged",
      "type": "event"
    },
    {
      "anonymous": false,
      "inputs": [
        {
          "indexed": false,
          "internalType": "address",
          "name": "lost",
          "type": "address"
        },
        {
          "indexed": false,
          "internalType": "address",
          "name": "recovery",
          "type": "address"
        }
      ],
      "name": "Claimed",
      "type": "event"
    },
    {
      "anonymous": false,
      "inputs": [
        {
          "indexed": false,
          "internalType": "bytes32",
          "name": "hash",
          "type": "bytes32"
        },
        {
          "indexed": false,
          "internalType": "address",
          "name": "depositor",
          "type": "address"
        }
      ],
      "name": "Committed",
      "type": "event"
    },
    {
      "anonymous": false,
      "inputs": [
        {
          "indexed": false,
          "internalType": "address",
          "name": "lost",
          "type": "address"
        },
        {
          "indexed": false,
          "internalType": "address",
          "name": "recovery",
          "type": "address"
        }
      ],
      "name": "Revealed",
      "type": "event"
    },
    {
      "inputs": [],
      "name": "CHALLENGE_PERIOD",
      "outputs": [
        {
          "internalType": "uint256",
          "name": "",
          "type": "uint256"
        }
      ],
      "stateMutability": "view",
      "type": "function"
    },
    {
      "inputs": [],
      "name": "COMMIT_DELAY",
      "outputs": [
        {
          "internalType": "uint256",
          "name": "",
          "type": "uint256"
        }
      ],
      "stateMutability": "view",
      "type": "function"
    },
    {
      "inputs": [],
      "name": "COMMIT_FEE",
      "outputs": [
        {
          "internalType": "uint256",
          "name": "",
          "type": "uint256"
        }
      ],
      "stateMutability": "view",
      "type": "function"
    },
    {
      "inputs": [
        {
          "internalType": "address",
          "name": "lost",
          "type": "address"
        }
      ],
      "name": "challenge",
      "outputs": [],
      "stateMutability": "nonpayable",
      "type": "function"
    },
    {
      "inputs": [
        {
          "internalType": "address",
          "name": "lost",
          "type": "address"
        }
      ],
      "name": "claim",
      "outputs": [],
      "stateMutability": "nonpayable",
      "type": "function"
    },
    {
      "inputs": [
        {
          "internalType": "bytes32",
          "name": "h",
          "type": "bytes32"
        }
      ],
      "name": "commit",
      "outputs": [],
      "stateMutability": "payable",
      "type": "function"
    },
    {
      "inputs": [
        {
          "internalType": "bytes32",
          "name": "",
          "type": "bytes32"
        }
      ],
      "name": "commits",
      "outputs": [
        {
          "internalType": "address",
          "name": "depositor",
          "type": "address"
        },
        {
          "internalType": "uint256",
          "name": "timestamp",
          "type": "uint256"
        },
        {
          "internalType": "bool",
          "name": "revealed",
          "type": "bool"
        }
      ],
      "stateMutability": "view",
      "type": "function"
    },
    {
      "inputs": [
        {
          "internalType": "address",
          "name": "",
          "type": "address"
        }
      ],
      "name": "pendingRecoveries",
      "outputs": [
        {
          "internalType": "address",
          "name": "recoveryAddress",
          "type": "address"
        },
        {
          "internalType": "uint256",
          "name": "revealedAt",
          "type": "uint256"
        }
      ],
      "stateMutability": "view",
      "type": "function"
    },
    {
      "inputs": [
        {
          "internalType": "address",
          "name": "lost",
          "type": "address"
        },
        {
          "internalType": "address",
          "name": "recovery",
          "type": "address"
        },
        {
          "internalType": "uint256",
          "name": "nonce",
          "type": "uint256"
        }
      ],
      "name": "reveal",
      "outputs": [],
      "stateMutability": "nonpayable",
      "type": "function"
    }
  ],
  "bytecode": "0x608060405234801561001057600080fd5b506112df806100206000396000f3fe6080604052600436106100865760003560e01c80637be19ed2116100595780637be19ed214610147578063c3a079ed14610172578063e061bec51461019d578063e452cf4a146101c6578063f14fcbc81461020457610086565b80631e83409a1461008b57806347885781146100b457806350857fb2146100f357806372fb97031461011e575b600080fd5b34801561009757600080fd5b506100b260048036038101906100ad9190610b7a565b610220565b005b3480156100c057600080fd5b506100db60048036038101906100d69190610bdd565b6104ae565b6040516100ea93929190610c4d565b60405180910390f35b3480156100ff57600080fd5b50610108610505565b6040516101159190610c84565b60405180910390f35b34801561012a57600080fd5b5061014560048036038101906101409190610b7a565b61050a565b005b34801561015357600080fd5b5061015c6106df565b6040516101699190610c84565b60405180910390f35b34801561017e57600080fd5b506101876106ea565b6040516101949190610c84565b60405180910390f35b3480156101a957600080fd5b506101c460048036038101906101bf9190610ccb565b6106f0565b005b3480156101d257600080fd5b506101ed60048036038101906101e89190610b7a565b61093c565b6040516101fb929190610d1e565b60405180910390f35b61021e60048036038101906102199190610bdd565b610980565b005b6000600160008373ffffffffffffffffffffffffffffffffffffffff1673ffffffffffffffffffffffffffffffffffffffff1681526020019081526020016000209050600073ffffffffffffffffffffffffffffffffffffffff168160000160009054906101000a900473ffffffffffffffffffffffffffffffffffffffff1673ffffffffffffffffffffffffffffffffffffffff16036102f6576040517f08c379a00000000000000000000000000000000000000000000000000000000081526004016102ed90610da4565b60405180910390fd5b61012c81600101546103089190610df3565b42101561034a576040517f08c379a000000000000000000000000000000000000000000000000000000000815260040161034190610e73565b60405180910390fd5b8060000160009054906101000a900473ffffffffffffffffffffffffffffffffffffffff1673ffffffffffffffffffffffffffffffffffffffff163373ffffffffffffffffffffffffffffffffffffffff16146103dc576040517f08c379a00000000000000000000000000000000000000000000000000000000081526004016103d390610edf565b60405180910390fd5b600160008373ffffffffffffffffffffffffffffffffffffffff1673ffffffffffffffffffffffffffffffffffffffff168152602001908152602001600020600080820160006101000a81549073ffffffffffffffffffffffffffffffffffffffff0219169055600182016000905550507f89309c9b2aeaffbdce717113df9427298b20448c05919bf889e05f8c3094254b828260000160009054906101000a900473ffffffffffffffffffffffffffffffffffffffff166040516104a2929190610eff565b60405180910390a15050565b60006020528060005260406000206000915090508060000160009054906101000a900473ffffffffffffffffffffffffffffffffffffffff16908060010154908060020160009054906101000a900460ff16905083565b603c81565b6000600160008373ffffffffffffffffffffffffffffffffffffffff1673ffffffffffffffffffffffffffffffffffffffff1681526020019081526020016000209050600073ffffffffffffffffffffffffffffffffffffffff168160000160009054906101000a900473ffffffffffffffffffffffffffffffffffffffff1673ffffffffffffffffffffffffffffffffffffffff16036105e0576040517f08c379a00000000000000000000000000000000000000000000000000000000081526004016105d790610da4565b60405180910390fd5b61012c81600101546105f29190610df3565b4210610633576040517f08c379a000000000000000000000000000000000000000000000000000000000815260040161062a90610f74565b60405180910390fd5b600160008373ffffffffffffffffffffffffffffffffffffffff1673ffffffffffffffffffffffffffffffffffffffff168152602001908152602001600020600080820160006101000a81549073ffffffffffffffffffffffffffffffffffffffff0219169055600182016000905550507f98027b38153f995c4b802a5c7e6365bee3addb25af6b29818c0c304684d8052c826040516106d39190610f94565b60405180910390a15050565b662386f26fc1000081565b61012c81565b600083838360405160200161070793929190611018565b60405160208183030381529060405280519060200120905060008060008381526020019081526020016000209050600081600101541161077c576040517f08c379a0000000000000000000000000000000000000000000000000000000008152600401610773906110a1565b60405180910390fd5b603c816001015461078d9190610df3565b4210156107cf576040517f08c379a00000000000000000000000000000000000000000000000000000000081526004016107c69061110d565b60405180910390fd5b8060020160009054906101000a900460ff1615610821576040517f08c379a000000000000000000000000000000000000000000000000000000000815260040161081890611179565b60405180910390fd5b60018160020160006101000a81548160ff02191690831515021790555060405180604001604052808573ffffffffffffffffffffffffffffffffffffffff16815260200142815250600160008773ffffffffffffffffffffffffffffffffffffffff1673ffffffffffffffffffffffffffffffffffffffff16815260200190815260200160002060008201518160000160006101000a81548173ffffffffffffffffffffffffffffffffffffffff021916908373ffffffffffffffffffffffffffffffffffffffff160217905550602082015181600101559050507f69d33937c0b4daad30437b6aae513c34bd704c1f68ef349ca66fa804cae8fc60858560405161092d929190610eff565b60405180910390a15050505050565b60016020528060005260406000206000915090508060000160009054906101000a900473ffffffffffffffffffffffffffffffffffffffff16908060010154905082565b662386f26fc1000034146109c9576040517f08c379a00000000000000000000000000000000000000000000000000000000081526004016109c0906111e5565b60405180910390fd5b60008060008381526020019081526020016000206001015414610a21576040517f08c379a0000000000000000000000000000000000000000000000000000000008152600401610a1890611251565b60405180910390fd5b60405180606001604052803373ffffffffffffffffffffffffffffffffffffffff1681526020014281526020016000151581525060008083815260200190815260200160002060008201518160000160006101000a81548173ffffffffffffffffffffffffffffffffffffffff021916908373ffffffffffffffffffffffffffffffffffffffff1602179055506020820151816001015560408201518160020160006101000a81548160ff0219169083151502179055509050507ffda886b5d38d5d61e432b3acc9f19640a2b8c83c87a9c584a780d3854b309b9c8133604051610b0c929190611280565b60405180910390a150565b600080fd5b600073ffffffffffffffffffffffffffffffffffffffff82169050919050565b6000610b4782610b1c565b9050919050565b610b5781610b3c565b8114610b6257600080fd5b50565b600081359050610b7481610b4e565b92915050565b600060208284031215610b9057610b8f610b17565b5b6000610b9e84828501610b65565b91505092915050565b6000819050919050565b610bba81610ba7565b8114610bc557600080fd5b50565b600081359050610bd781610bb1565b92915050565b600060208284031215610bf357610bf2610b17565b5b6000610c0184828501610bc8565b91505092915050565b610c1381610b3c565b82525050565b6000819050919050565b610c2c81610c19565b82525050565b60008115159050919050565b610c4781610c32565b82525050565b6000606082019050610c626000830186610c0a565b610c6f6020830185610c23565b610c7c6040830184610c3e565b949350505050565b6000602082019050610c996000830184610c23565b92915050565b610ca881610c19565b8114610cb357600080fd5b50565b600081359050610cc581610c9f565b92915050565b600080600060608486031215610ce457610ce3610b17565b5b6000610cf286828701610b65565b9350506020610d0386828701610b65565b9250506040610d1486828701610cb6565b9150509250925092565b6000604082019050610d336000830185610c0a565b610d406020830184610c23565b9392505050565b600082825260208201905092915050565b7f4e6f2070656e64696e67207265636f7665727900000000000000000000000000600082015250565b6000610d8e601383610d47565b9150610d9982610d58565b602082019050919050565b60006020820190508181036000830152610dbd81610d81565b9050919050565b7f4e487b7100000000000000000000000000000000000000000000000000000000600052601160045260246000fd5b6000610dfe82610c19565b9150610e0983610c19565b9250828201905080821115610e2157610e20610dc4565b5b92915050565b7f4368616c6c656e676520706572696f64206e6f74206f76657200000000000000600082015250565b6000610e5d601983610d47565b9150610e6882610e27565b602082019050919050565b60006020820190508181036000830152610e8c81610e50565b9050919050565b7f4f6e6c79207265636f7665727920616464726573732063616e20636c61696d00600082015250565b6000610ec9601f83610d47565b9150610ed482610e93565b602082019050919050565b60006020820190508181036000830152610ef881610ebc565b9050919050565b6000604082019050610f146000830185610c0a565b610f216020830184610c0a565b9392505050565b7f4368616c6c656e676520706572696f64206f7665720000000000000000000000600082015250565b6000610f5e601583610d47565b9150610f6982610f28565b602082019050919050565b60006020820190508181036000830152610f8d81610f51565b9050919050565b6000602082019050610fa96000830184610c0a565b92915050565b60008160601b9050919050565b6000610fc782610faf565b9050919050565b6000610fd982610fbc565b9050919050565b610ff1610fec82610b3c565b610fce565b82525050565b6000819050919050565b61101261100d82610c19565b610ff7565b82525050565b60006110248286610fe0565b6014820191506110348285610fe0565b6014820191506110448284611001565b602082019150819050949350505050565b7f4e6f207375636820636f6d6d6974000000000000000000000000000000000000600082015250565b600061108b600e83610d47565b915061109682611055565b602082019050919050565b600060208201905081810360008301526110ba8161107e565b9050919050565b7f546f6f206561726c7920746f2072657665616c00000000000000000000000000600082015250565b60006110f7601383610d47565b9150611102826110c1565b602082019050919050565b60006020820190508181036000830152611126816110ea565b9050919050565b7f416c72656164792072657665616c656400000000000000000000000000000000600082015250565b6000611163601083610d47565b915061116e8261112d565b602082019050919050565b6000602082019050818103600083015261119281611156565b9050919050565b7f496e636f72726563742066656500000000000000000000000000000000000000600082015250565b60006111cf600d83610d47565b91506111da82611199565b602082019050919050565b600060208201905081810360008301526111fe816111c2565b9050919050565b7f4861736820616c726561647920636f6d6d697474656400000000000000000000600082015250565b600061123b601683610d47565b915061124682611205565b602082019050919050565b6000602082019050818103600083015261126a8161122e565b9050919050565b61127a81610ba7565b82525050565b60006040820190506112956000830185611271565b6112a26020830184610c0a565b939250505056fea26469706673582212202ce94b6f559d795909afa489f1dfa541bff9c99524e6610d874932dc5eedf4d564736f6c63430008140033",
  "linkReferences": {},
  "deployedLinkReferences": {}
}